S011000053746F7057617463682E7372656376
S11300000C942A000C9447000C9447000C9447006D
S11300100C9447000C9447000C9447000C94470040
S11300200C9447000C9447000C9447000C94470030
S11300300C9447000C9447000C9447000C94470020
S11300400C9447000C9447000C9447000C94470010
S11300500C94470011241FBECFE5D8E0DEBFCDBF0E
S113006010E0A0E6B0E0E8EFF5E002C005900D92E4
S1130070AE38B107D9F720E0AEE8B0E001C01D9278
S1130080AF38B207E1F70E94EF010C94FA020C9426
S11300900000982F9695969596958770613009F48F
S11300A041C020F0623009F489C00895913099F07C
S11300B028F09230E9F0933041F108954AB321E0F9
S11300C030E0B90102C0660F771F8A95E2F7CB01D1
S11300D0842B8ABB089547B321E030E0B90102C004
S11300E0660F771F8A95E2F7CB01842B87BB0895AF
S11300F044B321E030E0B90102C0660F771F8A954E
S1130100E2F7CB01842B84BB089541B321E030E0B6
S1130110B90102C0660F771F8A95E2F7CB01842BE1
S113012081BB08959130B9F028F0923029F19330D1
S1130130A1F108954AB321E030E0B90102C0660F8D
S1130140771F8A95E2F7CB018095942F98239ABB69
S11301509BB389234BC047B321E030E0B90102C00F
S1130160660F771F8A95E2F7CB018095942F982329
S113017097BB98B389234CC044B321E030E0B90164
S113018002C0660F771F8A95E2F7CB018095942F02
S1130190982394BB95B389234DC041B321E030E04B
S11301A0B90102C0660F771F8A95E2F7CB018095EB
S11301B0942F982391BB92B389234EC09130C1F000
S11301C028F0923039F19330B9F108954AB321E01F
S11301D030E0B90102C0660F771F8A95E2F7CB01C0
S11301E0962F909594239ABB9BB3892B8BBB089530
S11301F047B321E030E0B90102C0660F771F8A954A
S1130200E2F7CB01962F9095942397BB98B3892B53
S113021088BB089544B321E030E0B90102C0660F01
S1130220771F8A95E2F7CB01962F9095942394BB80
S113023095B3892B85BB089541B321E030E0B90122
S113024002C0660F771F8A95E2F7CB01962F90952F
S1130250942391BB92B3892B82BB0895813041F0E2
S113026028F0823039F0833039F008956BBB08955B
S113027068BB089565BB089562BB0895982F969551
S11302809695969587706130C1F5913091F028F07C
S11302909230D9F0933029F108954BB321E030E046
S11302A0B90102C0660F771F8A95E2F7CB01842B50
S11302B03AC048B321E030E0B90102C0660F771FAD
S11302C08A95E2F7CB01842B3CC045B321E030E0B2
S11302D0B90102C0660F771F8A95E2F7CB01842B20
S11302E03EC042B321E030E0B90102C0660F771F7F
S11302F08A95E2F7CB01842B40C061113FC0913055
S1130300A1F028F09230F9F0933059F108954BB3ED
S113031021E030E0B90102C0660F771F8A95E2F749
S1130320CB01809584238BBB089548B321E030E052
S1130330B90102C0660F771F8A95E2F7CB01809559
S1130340842388BB089545B321E030E0B90102C09D
S1130350660F771F8A95E2F7CB018095842385BBCE
S1130360089542B321E030E0B90102C0660F771F5F
S11303708A95E2F7CB018095842382BB0895282FC8
S11303802770869586958695813049F030F08230C5
S113039041F0833079F480B305C089B303C086B3D8
S11303A001C083B390E002C0959587952A95E2F742
S11303B0982F9170892F08950F931F93CF9303E67D
S11303C010E0C0E0F80161918F018C2F0E94490078
S11303D0CF5FC032B9F7CF911F910F9108950E945A
S11303E0DC0111E08CE10E94BF01882329F0809197
S11303F0600081110CC064C08091600081278093EB
S113040060008CE10E94BF018823D9F3F0CF8AE118
S11304100E94BF01882351F08BE10E94BF0181112A
S113042010C080916100809362000BC080918E00A7
S1130430812780938E008AE10E94BF018823D9F32B
S1130440EBCF80918E00CAEFD0E0882379F18091C0
S113045062000E949B028AE10E94BF01811107C0D1
S113046080916200815080F080936200BBCF8BE169
S11304700E94BF018823A1F38CE10E94BF0188235D
S113048079F3219721F7ECCF10926200ABCF8AE188
S11304900E94BF01882309F4A5CF8CE10E94BF010B
S11304A0882309F49FCF219709F49CCF809162009F
S11304B00E949B028BE10E94BF018111E8CF92CF81
S11304C08AE10E94BF0181110BC0809161008F5F9E
S11304D0809361008AE10E94BF018823D9F382CF0F
S11304E08BE10E94BF0181110BC08091610081509A
S11304F0809361008BE10E94BF018823D9F372CFFE
S1130500CAEFD0E0809161000E949B028AE10E94C0
S1130510BF01882309F466CF8BE10E94BF018823C1
S113052009F460CF8CE10E94BF01882309F45ACFFB
S1130530219741F757CFCF93C82F61E086E1C436A6
S113054048F50E943E0160E087E10E943E018C2F45
S11305506AE00E94EE02C82FE92FF0E0ED57FF4F4A
S11305606081660F80E00E942E018FEC97E0019776
S1130570F1F700C0000061E087E10E943E0160E005
S113058086E10E943E01EC2FF0E0ED57FF4F6081C1
S1130590660F19C00E943E0160E087E10E943E019F
S11305A06EE780E00E942E018FEC97E00197F1F74F
S11305B000C0000061E087E10E943E0160E086E146
S11305C00E943E016EE780E00E942E018FEC97E0CE
S11305D00197F1F700C00000CF910895991B79E0CD
S11305E004C0991F961708F0961B881F7A95C9F7BF
S10B05F080950895F894FFCFF3
S11305F8011E1E01000000000000010000000000B0
S113060800010000000000000000000200020202D5
S11106180000003F065B4F666D7D077F6F009C
S9030000FC
